{
  "contractName": "CamelToken",
  "abi": [
    {
      "inputs": [],
      "stateMutability": "nonpayable",
      "type": "constructor"
    },
    {
      "anonymous": false,
      "inputs": [
        {
          "indexed": false,
          "internalType": "address",
          "name": "voter",
          "type": "address"
        },
        {
          "indexed": false,
          "internalType": "uint256",
          "name": "choice",
          "type": "uint256"
        }
      ],
      "name": "Voted",
      "type": "event"
    },
    {
      "inputs": [
        {
          "internalType": "address",
          "name": "",
          "type": "address"
        },
        {
          "internalType": "address",
          "name": "",
          "type": "address"
        }
      ],
      "name": "allowed",
      "outputs": [
        {
          "internalType": "uint256",
          "name": "",
          "type": "uint256"
        }
      ],
      "stateMutability": "view",
      "type": "function",
      "constant": true
    },
    {
      "inputs": [
        {
          "internalType": "address",
          "name": "",
          "type": "address"
        }
      ],
      "name": "balances",
      "outputs": [
        {
          "internalType": "uint256",
          "name": "",
          "type": "uint256"
        }
      ],
      "stateMutability": "view",
      "type": "function",
      "constant": true
    },
    {
      "inputs": [],
      "name": "fixedTotalSupply",
      "outputs": [
        {
          "internalType": "uint256",
          "name": "",
          "type": "uint256"
        }
      ],
      "stateMutability": "view",
      "type": "function",
      "constant": true
    },
    {
      "inputs": [],
      "name": "owner",
      "outputs": [
        {
          "internalType": "address",
          "name": "",
          "type": "address"
        }
      ],
      "stateMutability": "view",
      "type": "function",
      "constant": true
    },
    {
      "inputs": [],
      "name": "paused",
      "outputs": [
        {
          "internalType": "bool",
          "name": "",
          "type": "bool"
        }
      ],
      "stateMutability": "view",
      "type": "function",
      "constant": true
    },
    {
      "inputs": [],
      "name": "symbol",
      "outputs": [
        {
          "internalType": "string",
          "name": "",
          "type": "string"
        }
      ],
      "stateMutability": "view",
      "type": "function",
      "constant": true
    },
    {
      "inputs": [],
      "name": "totalSupply",
      "outputs": [
        {
          "internalType": "uint256",
          "name": "",
          "type": "uint256"
        }
      ],
      "stateMutability": "view",
      "type": "function",
      "constant": true
    },
    {
      "inputs": [
        {
          "internalType": "address",
          "name": "recipient",
          "type": "address"
        },
        {
          "internalType": "uint256",
          "name": "amount",
          "type": "uint256"
        }
      ],
      "name": "transfer",
      "outputs": [],
      "stateMutability": "nonpayable",
      "type": "function"
    },
    {
      "inputs": [
        {
          "internalType": "address",
          "name": "sender",
          "type": "address"
        },
        {
          "internalType": "address",
          "name": "recipient",
          "type": "address"
        },
        {
          "internalType": "uint256",
          "name": "amount",
          "type": "uint256"
        }
      ],
      "name": "transferFrom",
      "outputs": [],
      "stateMutability": "nonpayable",
      "type": "function"
    },
    {
      "inputs": [
        {
          "internalType": "address",
          "name": "spender",
          "type": "address"
        },
        {
          "internalType": "uint256",
          "name": "amount",
          "type": "uint256"
        }
      ],
      "name": "approve",
      "outputs": [],
      "stateMutability": "nonpayable",
      "type": "function"
    },
    {
      "inputs": [],
      "name": "buy",
      "outputs": [],
      "stateMutability": "payable",
      "type": "function",
      "payable": true
    },
    {
      "inputs": [
        {
          "internalType": "address",
          "name": "recipient",
          "type": "address"
        },
        {
          "internalType": "uint256",
          "name": "amount",
          "type": "uint256"
        }
      ],
      "name": "mint",
      "outputs": [],
      "stateMutability": "nonpayable",
      "type": "function"
    },
    {
      "inputs": [
        {
          "internalType": "uint256",
          "name": "amount",
          "type": "uint256"
        }
      ],
      "name": "burn",
      "outputs": [],
      "stateMutability": "nonpayable",
      "type": "function"
    },
    {
      "inputs": [],
      "name": "pause",
      "outputs": [],
      "stateMutability": "nonpayable",
      "type": "function"
    },
    {
      "inputs": [],
      "name": "unpause",
      "outputs": [],
      "stateMutability": "nonpayable",
      "type": "function"
    },
    {
      "inputs": [
        {
          "internalType": "uint256",
          "name": "choice",
          "type": "uint256"
        }
      ],
      "name": "vote",
      "outputs": [],
      "stateMutability": "nonpayable",
      "type": "function"
    }
  ],
  "bytecode": "0x608060405264174876e80060028190556003556004805460ff1916905534801561002857600080fd5b5060048054610100600160a81b0319163361010002179055610b228061004f6000396000f3fe6080604052600436106100f35760003560e01c80635c6581651161008a57806395d89b411161005957806395d89b41146102de578063a5d572c41461031b578063a6f2ae3a14610331578063a9059cbb1461033957600080fd5b80635c6581651461022a5780635c975abb146102625780638456cb591461028c5780638da5cb5b146102a157600080fd5b806327e235e3116100c657806327e235e3146101a85780633f4ba83a146101d557806340c10f19146101ea57806342966c681461020a57600080fd5b80630121b93f146100f8578063095ea7b31461011a57806318160ddd1461015f57806323b872dd14610188575b600080fd5b34801561010457600080fd5b5061011861011336600461090a565b610359565b005b34801561012657600080fd5b5061011861013536600461093f565b3360009081526001602090815260408083206001600160a01b039590951683529390529190912055565b34801561016b57600080fd5b5061017560025481565b6040519081526020015b60405180910390f35b34801561019457600080fd5b506101186101a3366004610969565b6103f6565b3480156101b457600080fd5b506101756101c33660046109a5565b60006020819052908152604090205481565b3480156101e157600080fd5b50610118610550565b3480156101f657600080fd5b5061011861020536600461093f565b6105bb565b34801561021657600080fd5b5061011861022536600461090a565b6106e6565b34801561023657600080fd5b506101756102453660046109c7565b600160209081526000928352604080842090915290825290205481565b34801561026e57600080fd5b5060045461027c9060ff1681565b604051901515815260200161017f565b34801561029857600080fd5b50610118610755565b3480156102ad57600080fd5b506004546102c69061010090046001600160a01b031681565b6040516001600160a01b03909116815260200161017f565b3480156102ea57600080fd5b5061030e6040518060400160405280600481526020016310d3531560e21b81525081565b60405161017f91906109fa565b34801561032757600080fd5b5061017560035481565b6101186107c3565b34801561034557600080fd5b5061011861035436600461093f565b61086c565b336000908152602081905260409020546103ba5760405162461bcd60e51b815260206004820152601c60248201527f596f75206d757374206861766520746f6b656e7320746f20766f74650000000060448201526064015b60405180910390fd5b60408051338152602081018390527f4d99b957a2bc29a30ebd96a7be8e68fe50a3c701db28a91436490b7d53870ca4910160405180910390a150565b60045460ff16156104195760405162461bcd60e51b81526004016103b190610a4f565b6001600160a01b0383166000908152602081905260409020548111156104515760405162461bcd60e51b81526004016103b190610a7b565b6001600160a01b03831660009081526001602090815260408083203384529091529020548111156104b95760405162461bcd60e51b8152602060048201526012602482015271139bdd08195b9bdd59da08185b1b1bddd95960721b60448201526064016103b1565b6001600160a01b038316600090815260208190526040812080548392906104e1908490610abd565b90915550506001600160a01b038316600090815260016020908152604080832033845290915281208054839290610519908490610abd565b90915550506001600160a01b03821660009081526020819052604081208054839290610546908490610ad4565b9091555050505050565b60045461010090046001600160a01b031633146105af5760405162461bcd60e51b815260206004820152601f60248201527f4f6e6c7920636f6e7472616374206f776e65722063616e20756e70617573650060448201526064016103b1565b6004805460ff19169055565b60045461010090046001600160a01b0316331461061a5760405162461bcd60e51b815260206004820152601c60248201527f4f6e6c7920636f6e7472616374206f776e65722063616e206d696e740000000060448201526064016103b1565b60045460ff161561063d5760405162461bcd60e51b81526004016103b190610a4f565b6003548160025461064e9190610ad4565b111561069c5760405162461bcd60e51b815260206004820152601a60248201527f4578636565647320666978656420746f74616c20737570706c7900000000000060448201526064016103b1565b6001600160a01b038216600090815260208190526040812080548392906106c4908490610ad4565b9250508190555080600260008282546106dd9190610ad4565b90915550505050565b336000908152602081905260409020548111156107155760405162461bcd60e51b81526004016103b190610a7b565b3360009081526020819052604081208054839290610734908490610abd565b92505081905550806002600082825461074d9190610abd565b909155505050565b60045461010090046001600160a01b031633146107b45760405162461bcd60e51b815260206004820152601d60248201527f4f6e6c7920636f6e7472616374206f776e65722063616e20706175736500000060448201526064016103b1565b6004805460ff19166001179055565b60045460ff16156107e65760405162461bcd60e51b81526004016103b190610a4f565b34806108345760405162461bcd60e51b815260206004820152601d60248201527f416d6f756e74206d7573742062652067726561746572207468616e203000000060448201526064016103b1565b3360009081526020819052604081208054839290610853908490610ad4565b92505081905550806002600082825461074d9190610ad4565b60045460ff161561088f5760405162461bcd60e51b81526004016103b190610a4f565b336000908152602081905260409020548111156108be5760405162461bcd60e51b81526004016103b190610a7b565b33600090815260208190526040812080548392906108dd908490610abd565b90915550506001600160a01b038216600090815260208190526040812080548392906106dd908490610ad4565b60006020828403121561091c57600080fd5b5035919050565b80356001600160a01b038116811461093a57600080fd5b919050565b6000806040838503121561095257600080fd5b61095b83610923565b946020939093013593505050565b60008060006060848603121561097e57600080fd5b61098784610923565b925061099560208501610923565b9150604084013590509250925092565b6000602082840312156109b757600080fd5b6109c082610923565b9392505050565b600080604083850312156109da57600080fd5b6109e383610923565b91506109f160208401610923565b90509250929050565b600060208083528351808285015260005b81811015610a2757858101830151858201604001528201610a0b565b81811115610a39576000604083870101525b50601f01601f1916929092016040019392505050565b60208082526012908201527110dbdb9d1c9858dd081a5cc81c185d5cd95960721b604082015260600190565b6020808252601290820152714e6f7420656e6f7567682062616c616e636560701b604082015260600190565b634e487b7160e01b600052601160045260246000fd5b600082821015610acf57610acf610aa7565b500390565b60008219821115610ae757610ae7610aa7565b50019056fea2646970667358221220828bc85a34c0ff36e08650fa80a7c4c62b94202b7e33f0fb572e4188e202961664736f6c63430008090033",
  "immutableReferences": {},
  "source": "pragma solidity ^0.8.0;\n// SPDX-License-Identifier: MIT\n\n//interface IUSDT {\n   // function transfer(address to, uint256 amount) external returns (bool);\n//}\n\ncontract CamelToken {\n    string public constant symbol = \"CMLT\";\n    mapping (address => uint256) public balances;\n    mapping (address => mapping (address => uint256)) public allowed;\n    uint256 public totalSupply = 100000000000;\n    uint256 public fixedTotalSupply = 100000000000;\n    bool public paused = false;\n    address public owner;\n\n    // Event for vote\n    event Voted(address voter, uint256 choice);\n\n    constructor()  {\n        owner = msg.sender;\n    }\n\n    function transfer(address recipient, uint256 amount) public {\n        require(!paused, \"Contract is paused\");\n        require(balances[msg.sender] >= amount, \"Not enough balance\");\n        balances[msg.sender] -= amount;\n        balances[recipient] += amount;\n    }\n\n    function transferFrom(address sender, address recipient, uint256 amount) public {\n        require(!paused, \"Contract is paused\");\n        require(balances[sender] >= amount, \"Not enough balance\");\n        require(allowed[sender][msg.sender] >= amount, \"Not enough allowed\");\n        balances[sender] -= amount;\n        allowed[sender][msg.sender] -= amount;\n        balances[recipient] += amount;\n    }\n\n    function approve(address spender, uint256 amount) public {\n        allowed[msg.sender][spender] = amount;\n    }\n\n    function buy() public payable {\n        require(!paused, \"Contract is paused\");\n        uint256 amount;\n       // if (msg.value > 0) {\n            // Buy using Ether\n            amount = msg.value;\n        //} else {\n            // Buy using USDT\n           // require(usdt.transfer(address(this), msg.value), \"USDT transfer failed\");\n            //amount = msg.value;\n       // }\n        require(amount > 0, \"Amount must be greater than 0\");\n        balances[msg.sender] += amount;\n        totalSupply += amount;\n    }\n\n    function mint(address recipient, uint256 amount) public {\n        require(msg.sender == owner, \"Only contract owner can mint\");\n        require(!paused, \"Contract is paused\");\n        require(totalSupply + amount <= fixedTotalSupply, \"Exceeds fixed total supply\");\n        balances[recipient] += amount;\n        totalSupply += amount;\n    }\n\n    function burn(uint256 amount) public {\n        require(balances[msg.sender] >= amount, \"Not enough balance\");\n        balances[msg.sender] -= amount;\n        totalSupply -= amount;\n    }\n\n    function pause() public {\n        require(msg.sender == owner, \"Only contract owner can pause\");\n        paused = true;\n    }\n\n    function unpause() public {\n        require(msg.sender == owner, \"Only contract owner can unpause\");\n        paused = false;\n    }\n\n    function vote(uint256 choice) public {\n        require(balances[msg.sender] > 0, \"You must have tokens to vote\");\n        emit Voted(msg.sender, choice);\n    }\n\n    \n}\n",
  "sourcePath": "/Users/mohamedabdille/Desktop/All/react-web3/contract/contracts/CamelToken.sol",
  "compiler": {
    "name": "solc",
    "version": "0.8.9+commit.e5eed63a.Emscripten.clang"
  },
  "schemaVersion": "3.4.11",
  "updatedAt": "2023-02-01T22:27:23.501Z",
  "networkType": "ethereum",
  "devdoc": {
    "kind": "dev",
    "methods": {},
    "version": 1
  },
  "userdoc": {
    "kind": "user",
    "methods": {},
    "version": 1
  }
}